:10600000C0180020310E0300E5890000E989000076
:10601000A70A0A010062000004180FAC2067C5003F
:106020000000000000000000000000000000000070
:1060300000000000E4500300000000000000000029
:106040000000000000000000FFFFFFFFFFFFFFFF58
:10605000FFFFFFFF006007000000000000000000DD
:10606000FFFFFFFFFFFFFFFFDD000000000000005B
:106070000000000000000000000000000000000020
:106080000000000000000000604700206047002082
:10609000C018002084B90300601E0300600F0020B8
:0C60A000240F002000E0070000000000BA
:10620000C0180020310E0300E5890000E989000074
:1062100041DA0000ED890000F58900002F0E03002F
:106220002F0E03002F0E03002F0E03002F0E03006E
:10623000F98900002F0E03002F0E03002F0E03001C
:106240006C8A00006C8A00006C8A00006C8A000076
:106250006C8A00006C8A000059A50000D1B30000D0
:106260006C8A00006C8A00006C8A00006C8A000056
:1062700069A300006C8A00006C8A0000FDFC00002D
:106280006C8A00006C8A00006C8A00002F0E0300EC
:106290006C8A0000C59C00006C8A00006C8A0000BB
:1062A0006C8A0000C59D00009D9D00006C8A000066
:1062B0006C8A00006C8A00006C8A0000C90603002A
:1062C000790603007506030021FE0200C5060300DF
:1062D0007D0603009D0603008106030025070300D9
:1062E0006DED0200A5EE02000D070300398D0000E0
:1062F0006C8A00006C8A00006C8A00006C8A0000C6
:106300006C8A00006C8A00006C8A00006C8A0000B5
:106310006C8A00006C8A00006C8A00006C8A0000A5
:106320006C8A00006C8A00006C8A00006C8A000095
:106330006C8A00006C8A00006C8A00006C8A000085
:10634000F8B500BFF8BC08BC9E467047F8B500BF62
:10635000F8BC08BC9E46704710B5054C237833B98D
:10636000044B13B1044800E000BF0123237010BDAB
:10637000C82000200000000074B1030008B5034BE2
:106380001BB10349034800E000BF08BD0000000046
:10639000CC20002074B10300154B002B08BF134B19
:1063A0009D46A3F5803A00218B460F461348144AB8
:1063B000121A2BF023FD0F4B002B00D098470E4BE9
:1063C000002B00D098470020002104000D000D484C
:1063D000002802D00C4800E000BF2BF0D1FC2000C8
:1063E000290009F0C5FE2BF0B7FC00BF0000080033
:1063F000C01800200000000000000000C82000209D
:10640000604700200000000000000000F0B50024FC
:106410001C4B85B01C700AF0A9FD022807464FF0FE
:10642000010527D10CF0CCF8174B05711E7886B901
:10643000164B3A46062128460CF052F80CF08AF822
:1064400003460120124A134905B0BDE8F0400DF0A3
:106450005BB8012EF2D100F09BFE1423C0B2019371
:106460000090CDE902440C4B2246082130460CF046
:1064700037F8E3E7094816F019F9094B1D7005B024
:10648000F0BD00BFF4340020E5200020FD1E030015
:10649000651E0300EE560300601E0300FC3400205E
:1064A000E420002038B500250E4B0F4C1B782570DA
:1064B00093B10AF05BFD022809D0284602F014FBD4
:1064C0002046BDE838404FF47A6116F0FBB8002052
:1064D000BDE8384002F0E0BA0AF048FD0228F6D0E4
:1064E00038BD00BFE4200020FC3400200022074B10
:1064F00010B501201A7007F007F9BDE810400346F7
:10650000034A044901200CF0FFBF00BFEC34002017
:10651000BB350300981E0300912808B504D1002064
:1065200002F0CEFA002008BD9028FBD1002002F036
:10653000B3FAF7E721B9034B1870034816F0B6B861
:10654000704700BFE5200020F434002013B5044656
:1065500000900A4B0A4A0B4901200CF0D5FF24B1E8
:106560000022094B1A7002B010BD40F6B83107483E
:1065700002B0BDE8104016F0A5B800BF761E0300BB
:106580007F1E0300841E0300E4200020EC34002062
:1065900008B5054A0346054901200CF0B5FF002265
:1065A000034B1A7008BD00BF761E0300981E03003F
:1065B000E420002038B5C37B05460BB1832038BDED
:1065C000C47C6CB9017D82898B1C9A420AD3806895
:1065D0000CF003FB07F01CF930B9EB7B002BEDD17D
:1065E0008120ECE78020EAE72046E8E738B5C37B66
:1065F00004460BB1832038BDC37C032B15D8DFE8DC
:1066000003F002161924017D8289CB1C9A4227D3FC
:106610008068455C01310CF0E0FA0146284608F03C
:106620002FFFF8B9E37B002BE4D18120E3E708F0EA
:1066300081FFF6E7017D82890B1D9A4210D38068A5
:106640000CF0C8FA08F0C2FFEBE7017D82898B1CD1
:106650009A4205D380680CF0C0FA08F0CDFFE0E75D
:106660008020C8E70020C6E738B5C37B0446002B6E
:10667000437D14BF8325C325012B18D10368028AEB
:10668000598858790BF03AF988B123685B88032B55
:1066900006D0192B02D1E37B3BB18325284638BDB8
:1066A0002046BDE83840FFF785BF8125F6E7637DCA
:1066B000002BF3D12368228A598858790BF015F9F9
:1066C0000028EBD023685B88202B0FD003D8012B48
:1066D000E1D9032BDEE7B3F5A06FDCD040F605323D
:1066E0009342D8D040F202429342D3E72046BDE81D
:1066F0003840FFF77BBF0120704701207047012021
:106700007047B520704770470020704700207047E1
:10671000002070470020704700207047002070471D
:10672000002070470020704701207047012070470B
:10673000B520704700207047002070470020704748
:106740000020704770470020704770470020704756
:1067500070470020704700207047842070477047C2
:106760000020704770477047002070477047002036
:106770007047012070477047012070470020704724
:1067800000207047034B1B681878012808BF0220BF
:10679000704700BFB82D0020704770470020704739
:1067A000002070470020704700207047002070478D
:1067B000002070470020704700207047002070477D
:1067C0007047B520704700207047002070470020B8
:1067D0007047704770477047B520704770477047E3
:1067E0007047002070477047704700000023FF216A
:1067F000084A137082F8783082F8653082F8773072
:1068000082F8793082F87A1082F87B30024A13607D
:10681000704700BFE620002004350020F8B50D4683
:106820008C680A6806462849212002F0D8FF6B6868
:106830007BB92649212002F0D2FF212009F042F83D
:106840002349212002F0E0FFBDE8F840212009F0B3
:1068500039B8002EF1D01F4D1F4E204F013C14F8C7
:10686000013F23B91A49212002F0CEFFE5E7752B3D
:1068700018D0762B18D0772B18D0732B18D0722BFA
:1068800018D0712B18D0622B18D06E2B18D02A2B51
:1068900018D01349134A212B18BF1146212002F0AA
:1068A0009EFFDCE72946F9E73146F7E73946F5E789
:1068B0000D49F3E70D49F1E70D49EFE70D49EDE724
:1068C0000D49EBE70D49E9E7185203004C1F03009F
:1068D000FD1E03000A1F0300FE1E0300151F030018
:1068E000561F0300531F0300211F03002B1F03002B
:1068F000361F0300411F03004B1F0300501F0300FE
:10690000F0B50026204A92F87B30184452FA80F005
:1069100090F865C090F8665030461C4BA5EB0C050E
:106920001F78EDB2F4B2A54225D90CEB060313444F
:106930005B7811B10CB92D2B17D0782B1FD0582BA9
:1069400005D108B137240AE0013C012C14D9602B91
:1069500017D8402BF6D83A2B34BF302400241B1B09
:10696000DBB29F4203D900FB07300136DAE705238B
:10697000002082F87930F0BD10270020F5E70028CC
:10698000E2D05724EBE700BFE62000207C1A00206D
:10699000FFF72CBF034B93F8770093F87B30C01AB6
:1069A000C0B27047E62000200021FFF7A9BF000019
:1069B00010B50A4B93F87B20024453FA82F292F806
:1069C000652013445C78A4F12D0359425941FFF727
:1069D00097FF2D2C08BF404210BD00BFE6200020CD
:1069E00030B50C4A92F87B300344C043DBB2C00F91
:1069F00039B1D51895F8664095F86550641B241A8E
:106A00000C7042FA83F393F865301844024B184433
:106A100030BD00BFE6200020E7200020F7B5154676
:106A20000E460DF107011C46FFF7DAFF9DF807300F
:106A30000746AB4288BF8DF807501CB19DF8074050
:106A40002C1BE4B222463046002100F075FB3019C1
:106A50009DF80720394600F013FB9DF8070003B0AE
:106A6000F0BD38B50C4601230822FFF7D7FF04F12B
:106A70000803621E043413F8011D12F8015FA342DB
:106A80001D701170F7D138BD38B50546014601209B
:106A9000FFF7C4FED5E901436CB91C46084D2368D5
:106AA00063B12946212002F09AFE21460020FFF71B
:106AB000B5FE0C34F3E71B786E2BEFD038BD00BF6A
:106AC0001B70030008B50449212002F088FEBDE8D0
:106AD0000840212008F0F6BEBE1E030038B5FFF7BF
:106AE000F1FF0024054D61190C34631953F80C3C77
:106AF00003B938BD0020FFF791FEF4E72C2C03000A
:106B00002DE9F84F1F4B204D53F820201F4921201D
:106B100002F065FE2B681BB9BDE8F84FFFF7DEBF3A
:106B20001B4FFFF7CFFF0026B946DFF86CA097F8A0
:106B30007B30F4B2013B9C4204DB2868BDE8F84F8F
:106B4000FFF7A2BF47FA86F393F8658000234C4411
:106B5000C84494F8662094F8651003F1010B521AAA
:106B6000DBB2D2B2934205D30A49212002F037FEAC
:106B70000136DCE743445A785146212002F02FFECB
:106B80005B46E6E7801A002004350020B91E0300AA
:106B9000E62000201C700300773B03002DE9F74F2F
:106BA000884C94F87730002B00F0A180864B671C4E
:106BB0001B7813F0010F1FD00025844E14E06319D9
:106BC00093F8662093F865302120D21A44FA85F3B1
:106BD00093F86510D2B2394408F06FFE3146212097
:106BE00002F0FDFD0135EDB294F87730AB42E6D806
:106BF0007749212002F0F3FD002694F87730DFF882
:106C0000DCE10193734B4FF000094D469EF8008084
:106C10001EF801CFB8441EF8012CACEB020C5FFA51
:106C20008CFC1868002852D00138C24619E02AB9F5
:106C3000002D4AD04FF001090C33F2E71AF8011B7E
:106C4000A1F1410BBBF1190F98BF2031A2F1410B0B
:106C500098BFC9B2BBF1190F9CBF2032D2B28A4291
:106C6000EAD1AAEB0801614510F8012FDFD1002A13
:106C7000DED11D46584B01361D6094F87B30F6B2CC
:106C8000013384F87B30D5E90123002A35D01B7805
:106C90006E2B31D03F2B23D04FF000094FF0070B64
:106CA000C846042394F87710AA68B14212F8087015
:106CB0002BD8AFB1904498F801302A2B10D0212F57
:106CC0001CBF032384F879300AE01D46B4E7B9F10C
:106CD000000F01D1002DCDD10223002584F8793099
:106CE00094F87900002869D168680BF077FC03B04C
:106CF000BDE8F04FFFF77ABD1346019AB24282D841
:106D000003221D4684F87920EAE7732F09D8712FF2
:106D10000BD2212F1FD0622F3CD0002F4BD103224A
:106D200046E0A7F17502022A45D8752F29D0762FA3
:106D30002AD0732F2BD0722F47F6FF7A18BF4FF04F
:106D4000FF3A012148460193FFF7DAFD5045019BC8
:106D500001D984F87930AA68424452782A2A94F8F2
:106D600079201CBF08F101085FFA88F8002AB7D122
:106D7000212F1FBF013609F10109F6B25FFA89F927
:106D800090E74FF0FF0ADCE74FF6FF7AD9E74FF0C4
:106D90007F0AD6E794F87B204A4454FA82F292F8AC
:106DA000652022445278222AD5D07B2AD3D00522CE
:106DB00084F87920CFE784F879B0CCE7FFF7A0FE1C
:106DC00095E700BFE6200020622100201C70030030
:106DD000FB1E03002C2C0300043500204B21002057
:106DE0002DE9F34106460D464FF000085C4C5D4F1F
:106DF00066B90DF10701284608F058FD78B126283C
:106E000000F0A980012384F879304BE0002D00F0D8
:106E1000A28016F8013B013D8DF80730EDB23A78BB
:106E20009DF807300D2A3B7001D10A2BE0D00D2BC5
:106E30000CD0A3F10A025142514122788846042A1B
:106E4000D6D8DFE802F0051D263C31000121F4E729
:106E500021B1FFF7A3FE4FF00108C9E7202B63D053
:106E6000222B07D10223237094F87820642A5DD165
:106E70000623C8E77B2B01D10323F4E70123F2E7C4
:106E800009B9202BF0D194F87730112B3FD103238F
:106E9000B9E7222BF7D00029E6D005234FF00108EF
:106EA00084F8793004232370B8F1000FA0D094F84F
:106EB000790008B1FFF724FEFFF798FC98E77D2BD7
:106EC00094F87A0003D1FF28DDD005239BE7602BDF
:106ED00013D8402B13D8392B8CBF002230229A1A9A
:106EE000D2B20F2A10D8FF280BD0FF2302EB0012DA
:106EF0008DF8072084F87A30B6E75722EFE737227B
:106F0000EDE784F87A2073E7202BDED170E70133B8
:106F1000DBB294F8782084F87730234483F8652036
:106F200000232370002994D1884661E72378012B40
:106F300009D19DF80730A3F1410119299CBF2033E5
:106F4000DBB28DF807309DF80710A3180132597095
:106F500084F878204CE7404602B0BDE8F08100BFDD
:106F6000E62000206321002049BA89B24840C0F3DE
:106F700003114140080380B24840C3B280EA431085
:106F8000704711F0FDBE70477047704770477047FB
:106F900070477047704770477047704700207047D0
:106FA0007047704700207047704770470020704757
:106FB0007047704770470020704770470120704746
:106FC000012070477047704770477047704770479F
:106FD0002DE9F0470024204DDFF89C90DFF89CA0BD
:106FE0005FFA84F8404615F05FF9FF2806460CD199
:106FF00022461A49287802F007FC2878013408F064
:1070000061FC142CECD1BDE8F087154B47B213EAB4
:10701000270338BF534659F824201249287802F034
:10702000F3FB002FE9DA14B1B8F1030F08D10E4BCE
:1070300016F0010F0D49287818BF194602F0E4FB3D
:107040000A2CDAD10A4B16F0010F0A49287818BF2A
:10705000194602F0D9FBD0E7C51D002075200300BA
:10706000FD1E03009D200300382003004E20030076
:10707000602003006A200300E41F0300736E030016
:107080008842F0B54FEA92031AD804460D469BB2E7
:107090009E00871904370434BC4205F104053AD137
:1070A000C3EB8333314402EB8303013E304411FAD6
:1070B00083F3994220D011F8012B00F8012FF8E753
:1070C000541E204421440D4604469BB2A0EB830687
:1070D000043E043CB442A5F104050ED16FF0030454
:1070E0005C43C3EB833302EB830321449BB2013443
:1070F0002044CB1A994209D1F0BD2F792771EF783E
:10710000E770AF78A7706F786770E2E711F8012930
:1071100000F8012DEEE715F804CC04F804CC15F8BE
:1071200003CC04F803CC15F802CC04F802CC15F813
:1071300001CC04F801CCAEE70244904200D1704784
:1071400000F8011BF9E710B5013801390AB91046FA
:1071500006E010F8014F11F8013F9C4201D0E01AFF
:1071600010BD013A92B2F1E782B2074B4AB1000C6E
:107170001A8008BF4FF6CE22044B14BF18801A8025
:1071800070474BF6EF62F2E7401B0020421B0020E5
:10719000094B1888020448BF80F0620042001A8040
:1071A000064A1388190444BF83F4805383F00B0309
:1071B0005900118058407047401B0020421B00209E
:1071C0000022034B1870034B1970034B1A70704761
:1071D0006F2100206E210020702100202DE9F04F4A
:1071E000234E85B0337807468846002B3DD04FF6B6
:1071F000FB73204D98422C7803D952211E4800F091
:10720000E3FF1E4B4FF0000B9A4632785FFA8BF982
:107210004A45187811D9484402A9C0B201931DF01B
:10722000C5FC082241460DEB0200FFF78CFF0BF175
:10723000010B019B0028E8D14C462B78A34207D1D3
:10724000631C3278DBB29A422B7004BF00232B7090
:107250009AF8003041461C44E4B220461DF0FEFD81
:1072600018B9394620461DF06FFC05B0BDE8F08F17
:107270006E21002070210020922103006F21002048
:10728000024B187800F07F00704700BF712100208A
:10729000034B18780130C0B2187000F07F007047BF
:1072A000712100201FB5030A8DF80E3003230093CF
:1072B00003AB8DF80D0000F0BFF905B05DF804FBDD
:1072C0001FB58DF80F100421030A8DF80E300091C0
:1072D00003AB8DF80D0000F0AFF905B05DF804FBCD
:1072E0002DE9F043994689B0BDF840509DF84460BF
:1072F000074688460DF1090011460822BDF84C40AA
:10730000FFF7BEFE8DF81250012E4FEA15258DF8BD
:1073100011908DF813508DF8146017D0032E1CD1E6
:10732000082212990DF11500FFF7AAFE9DF85030C2
:107330008DF81D3016230093BDF8542002AB414652
:10734000384600F079F909B0BDE8F0838DF81540B2
:10735000240A8DF816400F23EDE70120F3E71FB54F
:107360000C46194602238DF80D2000930A4603AB04
:107370000146204600F060F904B010BD70B586B03B
:10738000044616460DF10D0008221D46FFF778FE53
:107390000A232A460093342103AB20468DF815605A
:1073A00000F04AF906B070BD30B5002485B0ADF8E4
:1073B0000A20021D92B2012A1D46ADF80840ADF820
:1073C0000610ADF8044003D94FF6FF72904207D182
:1073D000064A2B46127801A91BF0B6FD05B030BD58
:1073E000014601AA20461BF075FEF7E7441B00206A
:1073F0002DE9F74F9846FF2A16BF474B00241B681C
:107400000E4618BF9C5C814618BF6408B8F1FF0F98
:1074100016BF414B00271B6815461CBF13F80870A8
:107420007F08FFF735FF4FEA19238DF800008DF82C
:1074300003600621360A68468DF804608DF80190D5
:107440008DF802308DF8054015F0B2FCFF28064695
:1074500004D11824204603B0BDE8F08F4FEA440B56
:107460000BF1070A0AEB4701C9B215F055FC0028D9
:10747000EFD10446A3451BD10BF106013A4601F0BA
:10748000FE0130465FFA8AF415F00DFD4FF0000A58
:107490005FFA8AF5AF4223D83346BDF83020062183
:1074A0004846FFF781FF0446304615F023FBD1E73D
:1074B0002146284615F0F2FCA11D0246C9B230460D
:1074C00015F0F1FC611CC9B2284615F0E7FCE11D7E
:1074D0000246C9B23046023415F0E5FCE4B2C9E711
:1074E0006D00EDB22946404615F0D8FC2146024613
:1074F000304615F0D8FC691CC9B2404615F0CEFCE8
:10750000611C0246C9B23046023415F0CCFC0AF1C7
:10751000010AE4B2BCE700BFE01A00202DE9F04107
:1075200088B00F4602A9064609F0ECFD00287CD081
:10753000FFF7AEFE8DF8100015F056F88DF811002B
:1075400015F052F8000A8DF81200082239490DF1A1
:107550001300FFF795FDBDF808300F218DF81C30A2
:107560001B0A8DF81D309DF80D3004A88DF81B60A6
:107570008DF81E3015F01CFCFF28044657D04FF044
:1075800000089DF80D305FFA88F2934208F1010877
:107590001DD801220DF10E01204615F04BFC4FF0D5
:1075A00000089DF80E305FFA88F2934208F1010856
:1075B00024D823463A4620210020FFF7F5FE054651
:1075C000204615F097FA284608B0BDE8F081002162
:1075D000304609F0C3FD05468DF807000DF107019F
:1075E0000122204615F026FC2D0A01220DF107018B
:1075F00020468DF8075015F01DFCC2E701213046EA
:1076000009F0ACFD05468DF807000DF107010122D8
:10761000204615F00FFC2D0A01220DF1070120462E
:107620008DF8075015F006FCBBE7A325CBE718251E
:10763000C9E700BFF5450020F8B51C460E461746C1
:107640000546FFF725FE9DF818102070204615F01E
:10765000AFFBFF2804460BD003463A462846314686
:10766000FFF7A2FE0546204615F044FA2846F8BD6D
:107670001825FBE708B5FFF768F80DF02BF8BDE813
:10768000084005F087BC08B5FFF762F80DF04EF82A
:1076900005F040FEBDE8084006F020BAFFF782B8CA
:1076A000FFF786B80020704738B504460D46FFF74F
:1076B0009AF829462046BDE8384008F095BDFFF706
:1076C00079B8FFF784B84022032101200DF02EBDC8
:1076D0000122032110460DF029BD002203210120C3
:1076E0000DF024BD0222032101200DF01FBD002258
:1076F0004FF4A06109200DF019BD01224FF4A061E3
:1077000009200DF013BD0122002109200DF00EBD4E
:10771000002307B5CDE90033012369464FF0FF3060
:107720008DF8023024F0BEF8003018BF012003B0FD
:107730005DF804FB0120704701207047012070476D
:107740002DE9F84F80460D4614469946164E06F12F
:10775000010A0DB9BDE8F88F102D4FF00D02494612
:1077600050462F4628BF1027FFF78AFC01233370AD
:1077700000230D48F473B3731DF008FC4246013436
:107780000A495FFA87FBE4B212F8013B11F8010FD6
:10779000434002F8013CA2EB0803DBB25B45F3D3A4
:1077A000ED1BADB29046D4E7762100207521002074
:1077B0002DE9F04F4FF00209364D85B003930F9B32
:1077C000174601900D220E460146681CBDF8388010
:1077D0000293FFF755FC49234C46AA462B702846D6
:1077E0004FEA1823AB7385F80F801DF0CFFB2B7881
:1077F00083EA17232B706B787B406B704FF0000B84
:1078000021E0C4F1100CA7EB0B031FFA8CFC9BB218
:10781000634528BF63463046A11B00EB010C5FFAAD
:107820008CF2A0EB060C1FFA8CFC9C451BD31C446D
:10783000E4B29B44102C1E441FFA8BFB03D1284654
:107840001DF0A4FB0024BB45DBD314B150461DF052
:107850009DFBB9F1010F4FF00004039E47460BD08A
:107860004FF00109CAE710F801CB1AF802E08CEAE0
:107870000E0C0AF802C0D0E7029804220549FFF76F
:10788000FFFB22460421019B029805B0BDE8F04FA2
:10789000FFF756BF76210020F7B5099FBDF82040BD
:1078A0000646CDE900471D46FFF782FF2CB133465F
:1078B000012221462846FFF743FF002003B0F0BD18
:1078C0002DE9F7431E46054688469146BDF82870C7
:1078D0000D4C0346394630460122FFF731FF33464F
:1078E0004A4641462846CDE90074FFF761FF04226D
:1078F00021460B98FFF727FC002814BF7E200020AC
:1079000003B0BDE8F08300BF722100202DE9F341F0
:107910000C4615461E468046084F991821443846A5
:107920000422FFF7ADFBCDE9006763192A46214623
:107930004046FFF7C5FF02B0BDE8F0818621002078
:10794000002070470020704770477047F7B500244B
:10795000094E0A4F0A4D56F8243003B93B6835F8F2
:107960001420084900920120224601340BF0CCFD7E
:10797000292CF0D103B0F0BD481B0020F01B0020E3
:10798000AC3500203736030008B5FFF7DFFFBDE850
:10799000084000F0EFB8000007B50020FFF704F83A
:1079A000C2B2282A0DD8084B53F822300BB9074B26
:1079B0001B680749012031F81210009105490BF0AE
:1079C000A3FD03B05DF804FB481B0020F01B002062
:1079D000AC35002037360300FFF7B8BF7047000012
:1079E00038B50020FEF7E0FF04460120FEF7DCFF7B
:1079F0000546054901200BF087FDA9B2E0B2BDE8BC
:107A0000384000F0CFB800BF42360300F7B500247D
:107A1000094E0A4F0A4D56F8243003B93B6835F831
:107A20001420084900920120224601340BF06CFD1D
:107A3000292CF0D103B0F0BD481B0020F01B002022
:107A40005A3500203736030073B502AB03E9060050
:107A50000446019D14F01CFB0646204614F026FB4C
:107A60009DF800008EB1202C0FD82B78012B36D832
:107A70004FF6FF75384903EB4313234431F81320C5
:107A8000AA4202D0013221F813204FF6FF71334B86
:107A9000334A33F8145032F814608D421CBF691C0D
:107AA00023F8141004F0FD01092930D1998A928A33
:107AB0000144914235DA998233F81430B34204D349
:107AC000B54202D22046FEF74DFE0025254BEA5C6A
:107AD000A24228D00135112DF9D102B070BD022B80
:107AE000D3D14FF6FF714FF6FF751B4B33F81420BF
:107AF0008A421CBF013223F8142004F1210133F81B
:107B00001120AA421CBF013223F81120BDE71D2C11
:107B1000D2D1598F0144508F814201DA5987CBE786
:107B2000928A9A82C8E729F0CAF80F4B04461B785C
:107B3000834203D8E0210D4800F046FB4FF6FF7169
:107B40000B4A04EB04142C4432F814308B42C4D09A
:107B5000013322F81430C0E7FE350020AC35002098
:107B60005A350020C0390300251B00202A390300A4
:107B700038350020522200210148FFF7DDBA00BF4E
:107B8000AC3500205222FF210148FFF7D5BA00BFD3
:107B90005A35002008B5FFF7EDFFBDE80840FFF7B4
:107BA000F1BF0000014B23F8101070475A35002038
:107BB000032310B50F4C1022C4E904330E4B0F49B8
:107BC000E3610023A16121660D49E01DC4E919129A
:107BD0000C49A3626362E3622367E3666367226220
:107BE0002AF014F9084920462AF010F92023A3713D
:107BF00010BD00BF003800209A210020D1390300B9
:107C00008A210020DA390300DE3903002DE9F84F1C
:107C10001F4B16461A7881468A4698460AB9FFF7DE
:107C2000C7FF182707FB09873D6FD7F86CB05D4584
:107C30002BD9BC6E796E641BB44228BF34462944EC
:107C4000504622462AF0CFF8BB6E2544AB4208BF0F
:107C50000025A244361BABEB050B5E4528BF5E46F4
:107C600056B1182303FB0983596E32462944504606
:107C70002AF0B9F83444354424B1182303FB0988A9
:107C8000C8F870502046BDE8F88F0024E3E700BF35
:107C900000380020F8B504460E46174604F035F9C2
:107CA0003A46054631462046FFF7B0FF04462846CF
:107CB00004F031F92046F8BD2DE9F843124D1E4677
:107CC0002B788146884617460BB9FFF771FF04F001
:107CD0001CF900244FF0180C69690CFB04535A6E10
:107CE0002AB10134A142F8DC4FF0FF3407E0A14291
:107CF000FADDC3E918989F661A67DA665E6704F0D2
:107D00000AF92046BDE8F88300380020FFF750BF8D
:107D100070B54FF060441A4B00261A68194D42F0B6
:107D200001021A60DA684FF4607042F08072DA6023
:107D3000154BC4F8B03F0223C4F8006EC4F8806E3F
:107D4000C5F8F03003F0D8FC104B00F5D52000F258
:107D5000FC40B0FBF3F00E4A0E4B01382861C4F82A
:107D6000406E1A600C4BC4F8803E4FF48073C5F827
:107D70000433D4F8003E43F48073C4F8003E70BD71
:107D8000F0ED00E0000004E055CEACC5F8590D0060
:107D9000FF030040001000E00D00010010B50124B9
:107DA0000E4B00201C6004F096FA234604220321A7
:107DB000002004F0E5FA20460EF0EAFCFFF7A8FFE9
:107DC0000EF0E7FCFFF7A2FF2346402204490548D6
:107DD000FFF772FF044B1860C00F10BD44D403407E
:107DE000AA210020E5390300F41B0020024B18688B
:107DF000003018BF01207047F0ED00E0D123054AA4
:107E0000037013784170090A8170591CC370117096
:107E100004207047EA2100202DE9F74F354E074630
:107E200033681C5C032C63D9DFF8CC8029F0ADF8F3
:107E30004FF6FF7A0025C1460534E4B20190D8F828
:107E400000204AB1AC4207D929F09FF8019BC01A23
:107E500080B2B0F5FA7F05D9601B18BF012003B0CE
:107E6000BDE8F08F002D3DD0012D1DD14FF0020B4C
:107E70003268D55D4FF06042D2F8801ECB0711D535
:107E80001146D9F80C0040F08070C9F80C00D1F808
:107E9000000E40F48070C1F8000E086A0028F0D08F
:107EA00082F820505D46CAE7E21E05F1010B9542BB
:107EB0005FFA8BFB02D15FFA8AF5DBE7A21E9542DF
:107EC00002D1CAF30725D5E7621E95420ED0A91E3E
:107ED000C9B2384614F0E2FF51460546FFF744F8B0
:107EE0008246C7E75B254FF0010BC3E75D25C1E77D
:107EF0000120B4E7E01A0020F0ED00E010B50B4BD4
:107F000090B0402269461868FFF7C4FE58B1C1B26C
:107F1000684614F04DFF04460146122021F0B0FEE1
:107F2000204614F0E7FD10B010BD00BFF41B002088
:107F300010B5002090B0FEF737FD40226946044698
:107F400000F024F9034630B12246064901200BF027
:107F5000DBFA10B010BD0122694608200BF066FA6A
:107F6000F7E700BFF539030010B500F093F80028DB
:107F700014BF79226E22144901200BF0C5FA00F0DB
:107F800089F8F8B100F016F9002814BF79226E22A2
:107F90000E4901200BF0B8FA02220D4901200BF026
:107FA000B3FA0C4B0C491C1F53F8042C01200BF0A6
:107FB000ABFA04F11003E26807490120BDE8104064
:107FC0000BF0A2BA3F22E3E7633B03007A3B0300D6
:107FD0008A3B0300AC380020A93B030070B500F0D9
:107FE0007FF804461F4901200BF08EFA2CB9BDE83A
:107FF00070401D4901200BF087BA00F079F8054662
:1080000022691A49012026880BF07EFA62881849F5
:1080100001200BF079FA1749A28801200BF074FABD
:108020006388E28813F0100F14BF1349134901202D
:108030000BF06AFAA268124901200BF065FAE268B7
:10804000104901200BF060FA0F4A104B1049B6F5A9
:10805000817F28BF134601202A46BDE870400BF0FF
:1080600053BA00BF3F3A03004C3A03006D3A030095
:108070008B3A0300AC3A0300C93A0300E63A030026
:10808000043B0300223B03002D3A0300373A030070
:10809000403B0300034B1878012894BF00200120C7
:1080A000704700BFEB21002038B50446044D287806
:1080B000A04203D02146FEF756FB2C7038BD00BF0E
:1080C000EB210020054B1B7820B1012B04D80220A6
:1080D000FFF7EABF012BFBD8704700BFEB21002060
:1080E00008B500F019F8BDE8084005F085B90000B2
:1080F00010B5084C237853B9FFF7F2FF0123237022
:1081000028B10388B3F5817F24BF037D23702078D5
:1081100010BD00BFEC21002038B5164B1B78012B99
:1081200027D805F047F9144C0246144901200BF0FA
:10813000EBF90120FFF7C6FF2578FF2D19D105F0D7
:108140005BF9A8B143881822C3F3400329460C48C1
:108150002370FEF7F1FF2378012B0AD1FFF7C8FF48
:10816000042806D9BDE83840D921064800F02CB8CB
:10817000207038BDEB210020F81B0020CC3B030011
:10818000A8380020DE3B0300FFF7C6BF70B50446E9
:108190000D461646FFF7C0FF0420FFF785FF324665
:1081A0002946204605F05EF904460220FFF77CFFD1
:1081B000204670BD08B5FFF7AFFFBDE8084005F0E9
:1081C00060B942DE7047000038B504460D4600F045
:1081D000E9FD03F092FE2946204621F01DFD2B46C5
:1081E00022460549012007F073FB29462046BDE8D9
:1081F0003840FFF7E6BF00BF613C03006D4B2DE93F
:10820000F0415A686C4CA2655A6AE2656B4AD2F832
:1082100000122166D2F8042262669A6AA266DA6ABD
:10822000E2661A6B22675A6B6267A26BDB6B12F015
:10823000040FA367D4E90F5318BF1D4628F094FE1E
:10824000002285420346606522655DD35C4A954203
:108250005AD8AA696264E969A164B4F85810C1F3F4
:108260000801062954D157498A4251D356498A42B6
:108270004ED211884DF64262914249D140F20170CE
:108280006268C4F89420A268C4F898204F4A504904
:10829000934238BF13460A468B423CD3D31AE36459
:1082A0000023C4E91F33C4E92133C4E92333484E12
:1082B000444FDFF814C1AE4233D8D4E91FC7D4E924
:1082C0002165D4E923124FF0000E013BDBB2FF2BF6
:1082D00042D1BEF1000F05D0C4E91FC7C4E9216532
:1082E000C4E92312B4F85830C3F30803052B57D060
:1082F0003CD8032B47D0042B58D040F60722013B33
:108300004E2B98BF104640E000221D46C4E91122C2
:108310004FF42060BAE71E68B6F1CD3FBED10433FA
:10832000BAE756F8042DBA42C5D36245C3D2D10785
:10833000C1D5002104EB010EDEF87CE09645BAD0F1
:1083400004311829F6D10BB9052301E0013BDBB25A
:1083500004EB8301CA67AEE7E0464FF0010EBC466E
:1083600037462E460D4611464246AEE70C2B1AD034
:108370003B2B0CD0062BC0D140F60423B0F5206F68
:1083800008BF184601E040F60120BDE8F081114B1E
:108390009B6913F0020F40F2025318BF1846F4E72E
:1083A00040F60320F1E740F60520EEE740F6022014
:1083B000EBE700BF00ED00E00000002000E100E07E
:1083C000A018002058630000601E03009C000020DD
:1083D000C01800200080014A18B101280CBF0120FC
:1083E000022070474FF480732DE9F04385B0ADF85B
:1083F0000C3001F0B7FC01213A2003F033F90024DE
:108400000127DFF84480DFF8449003ABE35C0122EE
:1084100018F8336008EBC3035D6830460023294633
:1084200003F0AEFF4946E8B201F0AAFCCDE90077BF
:1084300001232A462946304603F04EFF14B105B009
:10844000BDE8F0830124E0E7743C0300D184000020
:1084500008B5FFF7C1FF022816BF024B0020185CC9
:1084600008BD00BFED21002008B5FFF7B5FF0228C9
:108470001CBF014B195408BDED21002008B5FFF7C2
:10848000ABFF022805D0034A135CB3FA83F35B0900
:10849000135408BDED21002008B5FFF79DFF022809
:1084A0000FD03021084A12F8303002EBC002594395
:1084B000064B50685B5823FA00F0C04300F00100FF
:1084C00008BD0020FCE700BF743C030014C003405B
:1084D00070B504460026FFF7DFFF054601E00026E1
:1084E0001D462046FFF7D8FFA8420346F7D10136C4
:1084F000052EF2D12046FFF7ABFFA8420BD029464C
:108500002046FFF7B1FF2046FFF7A2FF01462046B5
:1085100008F076FC70BD2046FFF7B0FF2046FFF75D
:1085200097FF0146204608F06BFC2046FFF7A6FFA8
:10853000E9E7000010B504F077F8044604F06CF8A1
:108540000022012101FA02F3234014D01B4B33F81F
:1085500012301B4A062B13D040F207218B420DD15B
:10856000184919480C68844208D14CF23C334B80BE
:108570000B88138012E00132102AE3D1104AF8E789
:108580004FF20F010F4B5888884214D11988B1F56A
:10859000406F10D211804CF23C325A80084B1A883E
:1085A00040F201739A4201BF084B094AD2E9000127
:1085B000C3E9000110BD4FF4C061EBE7843C030048
:1085C000F82100200000002007020FF0F021002019
:1085D00094000020014B1888000A7047F821002001
:1085E000014B1888704700BFF82100202DE9F04F9B
:1085F0004D4C0546A36BD4F850B05A0747BF00272F
:10860000B846D4F84CB0D4F85480D4F840A05DBF3C
:10861000464FD4F83CA0DFF83C91DFF83C9113F0D2
:10862000080F434B434A18BF1A46B7EB08061FBF53
:108630006421730801FB0B33B3FBF6F387B01CBF57
:108640009BB205933C494B46CDE9017ACDF80080B9
:1086500008BF059601F0D8F8B3B2CDE900931FFA30
:108660008BF2059B3549284601F0CEF8A36B5B07DA
:108670000AD49C3E5E4507D1626D314B9A4203D2CB
:108680003049284601F0C0F8BA4501D8C24504D2A5
:108690004A462D49284601F0B7F8284607F012F956
:1086A000236E0BB9636EBBB32849284601F097F8D7
:1086B00000260127DFF8A480DFF8A490226E07FAD5
:1086C00006F3134207D058F8262013781BB1494609
:1086D000284601F084F80136202EEFD1002601272C
:1086E000DFF87880DFF87890626E07FA06F31342BD
:1086F00009D008EB8603D3F8802013781BB14946D4
:10870000284601F06CF80136202EEDD1284607B03E
:10871000BDE8F04F01F072B828460D4907B0BDE83A
:10872000F04F01F071B800BF00000020C018002019
:108730008B3F0300923F03009A3F0300C83F0300B2
:108740009C000020014003002D4003004B4003002B
:108750007A400300863F0300AB5C030090400300B7
:10876000175203002DE9F8430446FFF739FF40F69E
:108770000123984239D010D840F2025398421DD0BC
:1087800040F20173984224D040F20153984213D131
:108790006549204601F038F822E040F6032398426C
:1087A0006CD03DD340F60423984200F09C8040F604
:1087B0000523984200F0B580BDE8F8835B49204668
:1087C00001F022F85A4B5B495A6C204601F01CF824
:1087D00006E0574A5849D2E92523204601F014F80B
:1087E0002046BDE8F84307F06DB8514D5349204687
:1087F00001F00AF895F86C309F0703D550492046E0
:1088000001F002F895F86F305E0603D54D49204619
:1088100000F0FAFF95F96F30002BE1DA4A49B8E72A
:10882000434D4A49204600F0EFFF95F8683098071D
:1088300004D06A6C3F49204600F0E6FF95F96830A5
:10884000002B04DA6A6F4249204600F0DDFF002663
:108850000127DFF80881DFF81491AA6E07FA06F302
:10886000134207D058F8262013781BB149462046FA
:1088700000F0CAFF0136082EEFD1B1E72C4D354983
:10888000204600F0C1FF2B496A6C204600F0BCFF77
:1088900095F86930590703D52F49204600F0B4FFF9
:1088A00095F96930002B04DA6A6F2949204600F0F7
:1088B000ABFF0826294FDFF8B480AB6EF340DA0730
:1088C00007D557F8262013781BB14146204600F003
:1088D0009BFF0136102EF0D195F86830002B7FF405
:1088E0007FAF1F4955E7124D1E49204600F08CFF0F
:1088F0006A6C1049204600F087FF1026174FDFF8FA
:108900006C80AB6EF340DB0707D557F82620137851
:108910001BB14146204600F077FF01361A2EF0D1F8
:108920005EE711494BE700BF153D0300523D0300D0
:1089300000000020823D03009B3D0300B53D030085
:10894000CD3D0300073E03003A3E0300763E0300A0
:108950009B3E0300BF3E0300D63E0300A43C030041
:108960001C3F03004C3F0300653F0300B73E03007C
:108970002DE9F84F06460025154C164FDFF85C80B0
:10898000DFF85CA023785FFA85FB0BB9BDE8F88FB0
:1089900057F8043B22461049304600F020FF227869
:1089A00004F1010982B9627882B10BF00301032955
:1089B0000CBF41465146304600F011FF304606F0EC
:1089C00081FF01354C46DDE74C46E8E74146F2E7DA
:1089D00090410300040000200C3D0300FB1E030037
:1089E0002A60030000F00CB800F00AB800F008B8E4
:1089F00000F006B800F004B800F002B800F000B8CB
:108A000072B61EF0080F09D01EF0040F0DD0DFF86B
:108A100050E0AEE8FF1F6FF002000CE0DFF840E02E
:108A2000AEE8FF1F6FF00E0005E0DFF834E0AEE8BF
:108A3000FF1F6FF006006946EFF309828EE807001A
:108A400086460848084C854501D3A54501D384F3E3
:108A50000888FFF7D3FB84F3088828F061FA000048
:108A600004000020A00F0020C0180020FFF7C6BFA0
:108A700010B501213A2002F0F5FD00230422022165
:108A8000032003F07DFCBDE81040032100230422F5
:108A9000084603F075BC0000084A12F8301002EBDB
:108AA000C002536801229A4030234B4341F2100127
:108AB00003F1804303F570335A507047C8480300F0
:108AC000084A12F8301002EBC002536801229A40A3
:108AD00030234B4342F2100103F1804303F570331E
:108AE0005A507047C8480300084A12F8301002EB89
:108AF000C002536801229A4030234B4343F21001D5
:108B000003F1804303F570335A507047C84803009F
:108B100010B10020FFF7C0BFFFF7D2BF08B5520861
:108B200028F09CF928B1BDE808408F210148FFF7E3
:108B30004BBB08BDE848030037B57F2A14BF154674
:108B400000254BF234629142044619D17F2241F252
:108B5000020168460823FFF7EFFF0822254968460F
:108B6000FEF7F1FA30B908237F2241F2F01168468E
:108B7000FFF7E2FF082269462046FEF781FA09E086
:108B800041F2F01291421AD11B4901388A6CC96C2A
:108B90001D1F0BB903B030BD013B9D4200F8012FF2
:108BA0004FEA1222F5D1002203349A42F2D0013268
:108BB000042A04F8011F4FEA1121F6D1EAE701F473
:108BC0007042B2F5805F07D1C1F30B0404F17E64FB
:108BD0009AB203FB0541D0E701F46042B2F5005FB1
:108BE000D8D1C1F30B0405499AB2214403FB051106
:108BF000C3E700BF744903000080E00F00E00700F6
:108C000070B5054616461C46DBB14BF234639942FB
:108C100010D1082C28BF08247F2241F202012346EC
:108C2000FFF78AFFA2B207492846FEF78CFA40B93F
:108C300041F2F011234632462846BDE87040FFF766
:108C40007BBF70BD744903002DE9F7430446E0077C
:108C50000F46154603D5DD213448FFF7B5FAE9077D
:108C600003D5DE213148FFF7AFFA04F47043B3F5C2
:108C7000805F3ED1C4F30B0404F17E646B1E2C4A6A
:108C800023449342264603D9E3212848FFF79CFA60
:108C9000DFF8989006EB050846453DD1A2070ED0B7
:108CA0004FF6FF7337F8022B02A943EA0243A01ED6
:108CB00041F8043D0422FFF731FF0234023DAB07C7
:108CC0000ED0023D25F00103FB5A02A96FEA0343CF
:108CD0006FEA1343042241F8043D6019FFF71EFFB9
:108CE00025B12A4639462046FFF718FF03B0BDE8F4
:108CF000F08304F46043B3F5005F05D10D4BC4F37A
:108D00000B041C442646C3E7EA210848FFF75CFA37
:108D10006FF00F060024BBE716F8013BFF2BBBD01A
:108D2000F4214846FFF750FAB6E700BFE8480300D1
:108D3000FF1FE00F00E00700FFF754BE1FB5012141
:108D40002D2002F08FFC144A01AB10685168128983
:108D500003C31A8001238DF804300D238DF80A30E7
:108D600003230E4C09212D208DF80B3002F07EFFDD
:108D700001A9204603F0C7FE4FF40061022342F22E
:108D80001800074AC2F884112350516041F21C02B6
:108D9000A35004B010BD00BF7C4903000080014A0D
:108DA00000E100E0014803F09DBE00BF0080014AE1
:108DB000A52803D10021024803F085BE704700BFFB
:108DC0000080014A024B586800F00100704700BF64
:108DD0000080014A024A536A002BFCD1704700BF51
:108DE0000080014A00207047002070477047000053
:108DF00013B572B603F081F87A4B7B495B69402268
:108E00008B6000230B764B768B76F023CB760B773B
:108E10004B778B77CA77802281F8202081F8213028
:108E2000E023602081F82230704B81F8232083F802
:108E3000002383F8012383F8022383F8032383F8B4
:108E4000042383F8052383F8062383F8072383F894
:108E5000082383F8092383F80A2383F80B2383F874
:108E60000C2383F80D2383F80E2383F80F2383F854
:108E7000102383F8112383F8122383F8132383F834
:108E8000142383F8152383F8162383F8172383F814
:108E9000182383F8192383F81A2383F81B2383F8F4
:108EA0001C2383F81D2383F81E2383F81F2383F8D4
:108EB000202383F82103202083F8222383F823230F
:108EC00083F8242383F8252383F8262383F8272394
:108ED00083F8282383F8292383F82A2383F82B0394
:108EE00083F82C2383F82D2383F82E2383F82F2354
:108EF00083F8302383F8312383F8322383F8332334
:108F000083F8342383F8352383F8362383F8372313
:108F100083F8382383F8392383F83A2383F83B23F3
:108F200083F83C2383F83D2383F83E2383F83F23D3
:108F3000CB6823F4E0631B041B0C43F0BF6343F4D2
:108F40000133CB604B6943F010034B614FF4E023D6
:108F50004B6204F025FDFFF7EDFAEFF308834FF0C5
:108F6000CD31234A043B934238D2224A002192B2A7
:108F70002148FEF7E1F862B6204B1B68C3F30743B4
:108F8000012B10D11E4B4FF48022596E41F2640028
:108F900049034FF0040458BF42F264011A501948C3
:108FA000046058BF5A5002224FF040231A6704F061
:108FB00067FC01F061FA002300938DF8043001236F
:108FC00068468DF8033003F0C9F800F02FF927F058
:108FD000E9FF0D4822F020F902B010BD1960043BF2
:108FE000C1E700BF0060000000ED00E000E100E02C
:108FF000600F0020840E0000A00000200080E00F21
:109000000080004020200140E47B030040F201602A
:1090100027F086BFFEF798BC08B500210B20FEF7AD
:1090200091FCBDE80840FEF790BC032000F080BA38
:1090300008B5FFF7CFFA044B0B289ABF00B203EB39
:109040008000184608BD00BFCE4A030008B5FFF7F0
:10905000C7FA044BC0F30F2253F82230C0B203EB1F
:10906000800008BD984A030010B5FFF7B3FA044624
:10907000FFF7B6FAC0B228B9012C24D164F07F04FE
:10908000E4B216E0072CF9D801A353F824F000BF8E
:10909000B39000007D900000B1900000B7900000F8
:1090A000B7900000BB900000BF900000C39000008C
:1090B0000924204610BD0224FBE70324F9E70B2412
:1090C000F7E70624F5E70446F3E700BF42099200FC
:1090D00002F1604202F56142D2F8003100F01F0156
:1090E00023FA01F010F001001EBF1068C84000F024
:1090F0000100704707282DE9F84F044688462BD019
:10910000082808BF022421460120FDF76DFBFFF768
:1091100059FE631ED3F1000949EB0309F0B1012C9C
:109120001CD1A520FFF744FE2746EFF3108A012348
:1091300083F31088EFF3118B002686F31188364DE8
:10914000484606F02FFE631E2E60042B55D8DFE83C
:1091500003F00E49494D51000324D4E7FFF732FED6
:1091600018B1FFF737FE0027DFE70746DDE72B4A98
:10917000136923F00403136130BF294B1A20D3F87D
:109180002464D3F820341E40C6F30B062E60FFF78C
:109190009DFFB8B346F480362E600C20FFF796FF93
:1091A00018B12B6843F400332B602820FFF78EFFA3
:1091B00018B12B6843F480232B601FB1012119489B
:1091C00003F081FC484606F00DFEB8F1000F1FD0F9
:1091D0008BF311888AF310882146BDE8F84F0020F0
:1091E000FDF702BB012002F045FFC6E7012002F0B7
:1091F00063FFC2E702F0F4FFBFE788210A48FEF7E9
:10920000E3FFBAE71920FFF761FF0028C2D1C4E7E6
:1092100088F31088E0E700BF0422002000ED00E0A2
:1092200000C003400080014AFE4A03000022014BB7
:109230001A607047002200200021FFF75BBFFFF794
:10924000FBBF00002DE9F04F89B021F0A3FF0746D6
:10925000002840F0DD806F4E6F4D316828680EF0B9
:10926000A5FD0446002827D033683C46D3E9000119
:109270009A6912689047336804A89B699B6898476D
:10928000336802209B69DB68984732680598536809
:10929000E7B2B3FBF0F3BB42916904F1010442D899
:1092A000CB680020984733689B695B6898473168B2
:1092B00028680EF07BFD04460026DFF88891002C1C
:1092C00053D1564B4FEA8608F35C002B31D1A246AE
:1092D000534BF35C0193534B03EB080B019B5FFA79
:1092E0008AF7BB42286853D84F4BF35C002B3CD025
:1092F0004C4B019F9844FBB27E2B286835D8D8F898
:10930000003003AA07EB030A514602AB0EF088FFB8
:1093100048452AD0514628680EF0C8FF0137044658
:109320000028E8D021E012680B6907FB002098476D
:10933000ABE73C4B03AA53F82670286802AB3946CA
:109340000EF06EFF484507D078B9039B012B0CD077
:10935000394628680EF0AAFF344B394653F80830D6
:1093600028681A680EF086FE04460136212EA6D122
:10937000B4FA84F32E4A5B0913702E4B9C4241D001
:109380002DD8002C32D0013B9C423FD0C5242DE08B
:10939000DBF8003003AA1F44394602AB0EF040FF51
:1093A00048450AD010B10AF1010A97E7039B8BB92F
:1093B000214B029AF35C9A42F5D01F4B1B4A9B5DEE
:1093C00052F80820394628680EF0C6FD0028EAD079
:1093D000044689E7394628680EF068FFEDE7174B29
:1093E0009C4211D004339C42D0D1C1242B681B7CF9
:1093F00023B14FF489711248FEF7E6FE204609B00A
:10940000BDE8F08FC324F1E7C424EFE7C224EDE701
:10941000C624F3E74C1C0020481C00200425030050
:109420005C24030048250300252503008024030055
:109430000822002002E000F0CC25030004E000F048
:109440008C4B03000BE000F0202970B506460C465B
:1094500015461AD8144A127822B3144A1068144ACE
:1094600052F82110134A125D3AB132460EF050FE06
:10947000C0B1BDE87040FDF786BD7F2D08BF002557
:10948000324629440EF0B2FDF2E7FF2903D9BDE8C8
:109490007040FFF7B5BB40F24511BDE8704006488B
:1094A000FEF792BE70BD00BF08220020481C0020BD
:1094B00048250300042503008C4B03002028F8B541
:1094C00004460D46164619D81449097829B314499B
:1094D000144F0868144951F824103C5D3CB11268DF
:1094E0000EF0C8FDC8B1BDE8F840FDF74CBD7F2DBA
:1094F00008BF002529440EF02FFDF3E7FF2805D90A
:109500001A463146BDE8F840FFF79EBB4FF4BC71E8
:10951000BDE8F8400548FEF757BEF8BD0822002018
:10952000481C002004250300482503008C4B030041
:1095300008B5084B1B7863B1074B002253F8201085
:10954000064B18680EF024FE18B1BDE80840FDF780
:109550001ABD08BD0822002048250300481C002031
:1095600070B5164685180AB9304470BD01F00F0376
:109570000A2B34BF30243724013A2344090905F863
:10958000013DD2B2EFE70000F0B5F9B100281CDAD6
:109590002D23B0F1004F137000D04042012115E09F
:1095A000801B8642ECB205F10105F9D904B927B157
:1095B00001274D1C30345454E9B20133092B09D131
:1095C000303050540131C8B2F0BD002100231F4695
:1095D000DFF808C05CF823600025E2E7144C0300C4
:1095E0002DE9F04F4FF0000B95B002AC81468A4652
:1095F00017461D465E46A0463B7863B902ABE41AA7
:10960000E4B2224619465046C847002840F09380ED
:109610003444E0B290E0252B13D0BBF1000F14D1FD
:109620002370013412AB9C426DD3A4EB0804E4B266
:10963000224641465046C84700287CD12644F6B20F
:1096400060E0BBF1000F00D101373B78632B00F0E5
:1096500092801BD8392B09D8302B80F09E80002BAC
:10966000CCD0252B51D04FF0000BDBE7582B00F06E
:109670008B80622BF7D14FF0000B2B6801936B6846
:109680000093009B9B4543D10835ECE7702B1ED01F
:1096900017D8642B01D06C2BE5D16C2B05F1040B92
:1096A00028686CD17B78752B14BF0121002101D073
:1096B000642B00D101372246FFF766FF04445D4664
:1096C000D1E7752BE9D0782B5ED0732BCBD1A4EBEF
:1096D0000804E4B2224602A9504605F1040B2D68A5
:1096E000C84740BB2644F6B2C4B22B5D0130002B04
:1096F000FAD1224629465046C847E0B95D4683461E
:109700002644F6B24446013776E723700134AAE7CF
:10971000019B204613F80B100222FFF721FF12AB2A
:10972000984204460ED3A0EB0804E4B22246414618
:109730005046C84718B1002015B0BDE8F08F264448
:109740004446F6B2009B013B5B4582BF2023237059
:10975000013412AB9C420BD3A4EB0804E4B22246C2
:1097600041465046C8470028E5D126444446F6B253
:109770000BF1010B85E72B6804352370C6E7752BC9
:109780000CBF0021012196E7204602222978FFF72D
:10979000E7FE05F1040B044691E77A7802F0DF0258
:1097A000582A19D1322B07F1010B09D10422204686
:1097B00029882F1DFFF7D4FE3D4604465F4652E739
:1097C000342B09D12F1D2D680422290C2046FFF7C8
:1097D000C7FE0422A9B2EDE74FF0010B22E70EB459
:1097E00003B503AA52F8041B019206F0A1FBC0B214
:1097F00002B05DF804EB03B0704700000149FFF7C9
:10980000EEBF00BFFB1E03000EB433B505AA52F82D
:10981000041B0546019206F08BFB04462846FFF721
:10982000EDFFE0B202B0BDE8304003B0704708B5CC
:1098300006F07EFBC0B208BD2DE9F04F9B46584BA9
:1098400085B01B78064689461546109F9DF844A0B2
:10985000DDF85080002B00F09280072A00F2918002
:109860000E9B002B00F08D800F9B002B00F0898059
:10987000129BB3F5006F00F38480012801D1002F03
:109880007FD0484B03EB05131B7B002B7BD0464C52
:1098900010220021684628F0B1FA04EB451410228A
:1098A000B9F1000F5CD14946204628F0A7FAA37809
:1098B00043F01003A370E37843F03003E370BAF190
:1098C000000F03D1DBB243F00303E37036496A01B2
:1098D000129B885A013B63F30E100E9B01EB020CA6
:1098E0008852CCF808300F9B9DF84C10CCF804300F
:1098F0009CF80330012E61F38303CDF800B08CF89F
:10990000033042D113230CF1100ECCF80C309CE83C
:109910000F008EE80F006FF00301DCF81C20B9F196
:10992000010F61F39F02CCF81C20CCF8147004D115
:109930000F9BCCF80470CCF81830002719492A0185
:109940008B1841F80280159A28465A609F605E7312
:109950002246694602F0B6FD384605B0BDE8F08FF4
:109960000021204628F04AFA1023A3700323E37055
:10997000BAF1000FAAD1DBB243F03003A5E70B48E0
:10998000EBE70B48E9E70B48E7E7B8F1000FD4D164
:109990009CF8023068F304138CF80230CDE700BF66
:1099A0008C2300200C2200208C220020028000F05A
:1099B000018000F0078000F038B5104B05461B7899
:1099C000BBB1C0B102F0A1FA00230D4901EB0312B3
:1099D000147B3CB92B6001231460137302F09BFAD3
:1099E000204638BD0133082BF0D102F094FA054827
:1099F000F7E70548F5E70548F3E700BF8C230020AB
:109A00000C220020048000F0028000F0018000F0B1
:109A100038B502F07AFA002305460A4AD1180C7BC1
:109A20005CB91033802BF9D102F0ECFC064B2846D0
:109A30001C7002F070FA204638BD284602F06BFA1E
:109A40000248F9E70C2200208C230020058000F05A
:109A50000D4B10B51B78044693B1072812D802F0BD
:109A600054FA0A4B03EB04131A7B2AB100241C732B
:109A700002F051FA204610BD02F04DFA0448FAE710
:109A80000448F8E70448F6E78C2300200C22002065
:109A9000068000F0028000F0018000F0164B13B544
:109AA0001868002301908DF8043002F02EFA134B51
:109AB0001C7824B102F02FFA114802B010BD012227
:109AC0001A7002F028FA0F4B1C731C7783F82C4095
:109AD00083F83C4083F84C4083F85C4083F86C404A
:109AE00083F87C4004230DEB03008DF8073002F06F
:109AF000B7FC2046E1E700BF384C03008C23002070
:109B0000038000F00C22002010B588B00E9C00925B
:109B100007940D9C024606949DF8304005940B9CDA
:109B200004949DF8284003940024CDE90134204694
:109B30000B462146FFF780FE08B010BD10B588B077
:109B40000E9C009207940D9C024606949DF83040AE
:109B500005940B9C04949DF8284003940024CDE9BF
:109B6000013420460B460121FFF766FE08B010BD08
:109B700008B50A4B1B785BB107280BD8084B03EBE1
:109B800000131B7B43B1002102F05AFC002008BDEA
:109B90000448FCE70448FAE70448F8E78C2300206F
:109BA0000C220020028000F0018000F0078000F00D
:109BB00008B50A4B1B785BB107280BD8084B03EBA1
:109BC00000131B7B43B1012102F03AFC002008BDC9
:109BD0000448FCE70448FAE70448F8E78C2300202F
:109BE0000C220020028000F0018000F0078000F0CD
:109BF00008B50A4B1B7853B107280AD8084B03EB6A
:109C000000131B7B3BB102F0ADFC002008BD0548F2
:109C1000FCE70548FAE70548F8E700BF8C23002079
:109C20000C220020028000F0018000F0078000F08C
:109C30000D4B1B7893B1072812D889B10B4B03EB5E
:109C400000131B7B73B10A4BDA6A012303FA00F09D
:109C500010401ABF00200B7008707047054870470D
:109C600005487047054870478C2300200C220020CF
:109C700000000440028000F0018000F0078000F046
:109C80000B4B10B51B780C4663B107280CD859B1A3
:109C9000084B03EB00131B7B43B102F075FC206003
:109CA000002010BD0448FCE70448FAE70448F8E740
:109CB0008C2300200C220020028000F0018000F0A4
:109CC000078000F02DE9F843174B1F6D5B6D1F40B7
:109CD00000D5FEE701260025144CDFF85480DFF89C
:109CE0005490374217D02368C8F800609BB1A16830
:109CF00062680131A16028469847637B012B0AD135
:109D000048B909EB4513197B1A7F60F3410160F3F1
:109D1000410219731A770135082D4FEA460604F1FE
:109D20001004DED1BDE8F883000004400C220020BE
:109D3000502004408C22002070B504460125084EB6
:109D400004B970BD94FAA4F0B0FA80F005FA00F3FB
:109D500024EA030456F82030002BF1D09847EFE7AF
:109D6000902300204FF00072044BC3F880211A604A
:109D70004FF08062C3F880211A60704700E100E074
:109D800038B504460D4602F0C0F8034B43F82450A2
:109D9000BDE8384002F0BFB890230020084BD3F84C
:109DA0002404D3F82024104042F2204220F42A5008
:109DB00020F02A004004400C9850FFF7BDBF00BFC0
:109DC00000C00340084BD3F82404D3F820241040EB
:109DD00042F2204220F4AA4020F055000004000C7A
:109DE0009850FFF7A9BF00BF00C00340104A30B52C
:109DF000136841611546ABB91060836011E0091B1F
:109E00009C6841611A467CB123465C698C42F6D954
:109E1000002CF4D052B19060836013B15A69511A8A
:109E2000596130BD0022F0E72346F4E72860F3E7EC
:109E3000E023002010B500F057FA094B094A1968D1
:109E400031B11368C41A4B69A34203D31B1B4B6186
:109E5000106003E0C01A002310604B6110BD00BF0A
:109E6000E0230020D4230020074B10B51B680220FC
:109E70005C69064B1B681C4400F05CFA2046BDE898
:109E8000104000F038BA00BFE0230020D4230020A7
:109E900070B59DF81450164605710025049A85602A
:109EA000BDF818500446C5800260C0E903360D466F
:109EB00029B961610BB11146984796B1354602F058
:109EC00024F80646FFF7B6FF29462046FFF78EFF27
:109ED000054B1B68A34201D1FFF7C6FF304602F0D5
:109EE0001AF8002070BD00BFE023002000210C4ABA
:109EF00013687BB183420AD1836879B18B60836830
:109F00001BB15A6941690A445A61002070471946D9
:109F10009B68EEE70028EFD0022070471360EEE761
:109F2000E023002070B501F0F0FF104D06462C78BC
:109F3000BCB90F4B1C600F4B1C600F4B1C7000F02A
:109F400093F9012000F0F6F900F028FA23460246C2
:109F500040F2E731094827F075FD094B18600123ED
:109F60002B70304601F0D7FF002070BDD0230020B9
:109F7000E0230020D4230020DC23002018FCFFFF76
:109F8000D8230020F8B5054600B301F0BEFF104C01
:109F90000646FFF74FFF2268AA420DD1022000F0CB
:109FA000D5F901272846FFF7A1FF054630B1304615
:109FB00001F0B1FF2846F8BD0027F3E7002FF6D0E7
:109FC0002368002BF3D0FFF74FFFF0E72225F1E7DE
:109FD000E0230020F0B50D4685B016461F46044626
:109FE00080B1FFF7CFFFBDF82C30002202939DF81F
:109FF00028302946CDE9007320463346FFF748FF55
:10A0000005B0F0BD2220FBE738B50C46054698B1F7
:10A0100091B100230B7001F078FF0121074B1B6801
:10A020000BB122781AB101F076FF002038BD9D42B5
:10A030000CBF21709B68F3E72220F7E7E0230020A4
:10A04000F0B51F46002387B00D4616468DF8173031
:10A050000446A0B10DF11701FFF7D6FF9DF81720B8
:10A060007AB9BDF83430294602939DF83030204645
:10A07000CDE900733346FFF70BFF07B0F0BD222098
:10A08000FBE70320F9E70000F8B50C460646C8B127
:10A09000C1B101F03AFF0546FFF7CCFE73692360BA
:10A0A000134B1B68B3420FD023B9284601F033FF8E
:10A0B00003201CE0596922689B680A442260F1E78A
:10A0C00000230FE0222012E0276800F00DF9094E6E
:10A0D0003368C01A8742F3D900F006F93368C01A12
:10A0E00023681B1A2846236001F015FF0020F8BDE5
:10A0F000E0230020D423002000F0F6B838B50A4B46
:10A1000004461B680D4683420CD300F047F94FF418
:10A110007A720023A4FB000127F094FC0130286030
:10A12000002038BD2120FCE7D823002038B50446A4
:10A1300000F034F94FF47A73A4FB0345A8B1431E31
:10A14000034212D100F02AF9B0FA80F3C3F11F03E1
:10A15000C3F12002A3F1200005FA02F224FA03F36E
:10A16000134325FA00F0184338BD00F017F9002317
:10A1700002462946204627F065FCF5E7C2072DE98F
:10A18000F84F044608D5354A13780133DBB2137013
:10A19000FFF750FEFFF768FEA3075DD500F0A4F8B7
:10A1A0002F4E074635684FF0000A451B01F0ADFE03
:10A1B0008046DFF8B090D9F80040002C44D06369A5
:10A1C000AB4205D95D1B65613760FFF74DFE3EE090
:10A1D00023462A4637605969914209D8187994F87C
:10A1E00004C0521A844588BF1C469B68002BF2D1DC
:10A1F000404601F090FED4F81480C4F814A001F099
:10A2000084FE83462046FFF771FE584601F083FE28
:10A2100023694BB101F079FE834621692046FFF79F
:10A22000E5FD584601F077FEE36813B1216820464A
:10A23000984700F059F84744ED1B0446054401F0E7
:10A2400064FE27468046B6E7022000F07FF84046CD
:10A25000BDE8F84F01F05FBEBDE8F88FDC230020B9
:10A26000D4230020E02300201FB51C4B01211868D7
:10A270009A88029053F8060FADF80C201B790090D5
:10A280003E208DF8043001F0EDF9002302A88DF88E
:10A2900008308DF80C3002F011FA6946012002F006
:10A2A000D1F94FF0904340F2FF319A6922F47F7266
:10A2B00022F003029A610A4A11609A6A12F00802B7
:10A2C000FBD11A62012002F0D7F94FF48052054BFE
:10A2D000C3F880211A6005B05DF804FB3C4C030014
:10A2E0001420004800E100E04FF090439A6A120702
:10A2F000FCD4186A70474FF09042936A1907FCD457
:10A30000136A116C5269520604D4CA1A022A01D87F
:10A3100099420ED1C21A012A98BF981CB0F1FF3F92
:10A3200028BF01304FF0904318649A6942F0400210
:10A330009A61704782074FF0904200F001039169E3
:10A3400048BF43F040030B43936170474FF0904187
:10A3500000F0010283078B6948BF42F0400223EA04
:10A3600002038B617047000010B501F0CEFD4FF085
:10A37000904304465B695A06074A03F0010003F064
:10A38000510348BF40F002001360FFF7F7FE20467C
:10A39000BDE8104001F0BFBD142000483E2001F090
:10A3A000ABB90000002211462D48F0B503682D4DD1
:10A3B00054592CB11E68AC18002E3DD12346012102
:10A3C0000832282AF4D101B103600022144626493C
:10A3D000264E0B6895592DB11F68B518002F32D144
:10A3E0002B4601240832282AF4D104B10B600068FE
:10A3F0000368002B2FD04FF04022936F007923F099
:10A40000FF7323F4803343EA00439367184B4FF004
:10A41000004209681A600B68FBB14FF04022936F4D
:10A42000097923F4FF7323F001030B439367104B67
:10A430004FF080421A60F0BD1E792779B74284BF81
:10A4400023460121BCE71F7995F804C0BC453CBFF9
:10A450002B460124C6E7074BD9E7064BE8E700BFC8
:10A46000E8230020F8230020EC23002020240020F3
:10A47000685000406860004010B5012228240F4B4E
:10A4800000211A700E48224627F0B8FC224600210F
:10A490000C4827F0B3FC0C4B0C4A13600C4A1360B9
:10A4A0004FF040430B4A1360536040220A4BC3F8FD
:10A4B00080211A60FFF776FF002010BDE423002002
:10A4C000F823002020240020F0230020E82300208F
:10A4D000EC2300206460004000E100E04FF04023E6
:10A4E000D3F888006FF48873C0F38800184440B232
:10A4F000704700004FF0402208B5936E526E134033
:10A5000013F0804111D0114B1B681A682AB1002149
:10A5100019605960FFF7E2FF90474FF080420C4B03
:10A520001A60BDE80840FFF73DBF002BF9DA094B80
:10A530001B681A682AB119605960FFF7CFFF012123
:10A540009047034B4FF00042EAE700BFEC230020A6
:10A5500064600040E8230020FFF7CCBF38B141B170
:10A56000013AB2F5006F044838BF00207047034835
:10A5700070470148704700BF037000F0027000F0A0
:10A580000D4910B50B780D4A4BB90124C2E90033CF
:10A59000C2E902330C7042F82300002010BD0023F2
:10A5A00052F823100029F6D08142F4D00133042B55
:10A5B000F6D10348F2E700BF5824002048240020C9
:10A5C000027000F038B504460D4601F09EFCA288EA
:10A5D00092B222B92A6001F09EFC064838BD1422CE
:10A5E000638802FB034308332B6001F094FC0020D6
:10A5F000F4E700BF0B7000F038B504460D4601F0DB
:10A6000084FCA3889BB223B92B6001F084FC0C4826
:10A6100038BD14226388E18802FB034308332B60B2
:10A6200063885A1C92FBF1F301FB13239BB26380F6
:10A63000A388013B9BB2A38001F06DFC0020E7E7FB
:10A640000B7000F07FB5012380F8303090F8363081
:10A6500083B9036824330D4A0490039200220292C6
:10A660004A680192012200920A684169C068FFF7B6
:10A6700065FA07E0022B02D103683433EBE70023CD
:10A6800080F8303007B05DF804FB00BFDDAE00009D
:10A690007FB5012380F8313090F8363093B90C4BF8
:10A6A000026803930023049002934B683C320193A9
:10A6B000012300930B6801698068FFF725FA07B052
:10A6C0005DF804FB022BEAD0002380F83130F6E776
:10A6D000D5A60000F7B5D06A01A91446FFF772FFAE
:10A6E000144B984220D00025019B1D619D6001F014
:10A6F0000CFC019A0746D66826B1D2E90023294608
:10A700002046B04701A9E06AFFF776FFE06A838838
:10A710009BB263B101A9FFF755FF01992046FFF7EE
:10A72000B7FF384601F0F7FB012003B0F0BD84F815
:10A730003130F6E70B7000F090F83530022B0BD17A
:10A740003022437F90F821005A43044B9B5823FA50
:10A7500000F000F0010070470020704714C0034073
:10A76000002313B51C4A52F8234094F8211081426B
:10A770000ED00133042BF6D102B010BD0028FBD15E
:10A780009DF80730002BF7D0A068FFF7F1F9F3E749
:10A7900094F83530022BEFD12046FFF7CDFF637ED2
:10A7A0002076022BE8D194F8323003F0FF02002B20
:10A7B000E2D102A901F8012DA068FFF739FA237E42
:10A7C0001BB194F83330002BD8D00023A06884F854
:10A7D0003330FFF7EDF9CFE74824002010B50446E9
:10A7E000FFF75CF9002104F10800FFF7E5F80146E6
:10A7F00008B1044810BD04F10C00FFF7DDF8002893
:10A80000F8D0F6E70E7000F090F836306BB942F2EF
:10A810001C62042103795B0103F1804303F570336B
:10A820009950022203685A617047022B07D10068D1
:10A83000016C11F0020118BF062101F025BD70471F
:10A8400090F8363083B9012203685A619A69D207B9
:10A85000FCD541F21C62042103795B0103F18043C2
:10A8600003F5703399507047022B07D10068036CD1
:10A870009B074CBF0521092101F006BD7047000070
:10A88000F8B5044617460D4601F03FFBA388E28861
:10A8900006469A4205D800233B6001F03CFB16486F
:10A8A000F8BD1422238805F1100C02FB0343083382
:10A8B0002A4603CA624518605960154603F1080329
:10A8C000F6D11068142218602388E18802FB034344
:10A8D00008333B60238830465A1C92FBF1F301FB9E
:10A8E00013239BB22380A38801339BB2A38001F082
:10A8F00012FB0020D4E700BF0A7000F073B50446D5
:10A900000D46C07EE67F00293AD00123042231465D
:10A9100001F036FD0123022294F82010207F01F07F
:10A920002FFD94F83530022B19D10023012294F821
:10A930002110607F01F024FD00230422A07F94F801
:10A94000221001F01DFD012394F82120607F019366
:10A950000093114601F0C0FC002002B070BD032B33
:10A96000FAD10023012294F82110607F01F008FD44
:10A970000023042294F82210A07F01F001FDEBE7F0
:10A980000B460A46314601F0FBFC2B462A4694F85A
:10A990002010207F01F0F4FC94F83530022B13D105
:10A9A0002B462A4694F82110607F01F0E9FC2B46E3
:10A9B0002A46A07F94F8221001F0E2FC94F82120AE
:10A9C000607F01950123C3E7032BC5D12B462A469F
:10A9D00094F82110607F01F0D3FC2B462A46C9E78A
:10A9E00090F8363013B9036898697047022B06BF98
:10A9F0000368186C002070472DE9F3410D460446AA
:10AA0000002879D001F081FA012D06463BD1E36A96
:10AA10009B889BB2002B3DD0A068FFF7E9F800238C
:10AA2000E06A84F8313083889BB273B101A9FFF7E3
:10AA3000C9FD0199A0680831FFF722F9344F019B45
:10AA40001F61E06A83889BB253BB2046FFF7C8FFB3
:10AA50008304FAD5023D012D10D8E068FFF7C8F84D
:10AA60000023A06A84F8303083889BB23BBB94F803
:10AA70003530032B02D02046FFF7C6FE304601F0EA
:10AA80004AFA002009E0022D38D1A36A9B889BB2C4
:10AA9000002BDFD101F03FFA1E4802B0BDE8F08183
:10AAA00001A9FFF7A9FD019BD3F80C80B8F1000FB5
:10AAB000C7D09B68002239462046C047C1E7694697
:10AAC000FFF780FD0099E0680831FFF7D9F8104FD3
:10AAD000009B1F61A06A83889BB2002BC7D0694688
:10AAE000FFF78AFD009BDD68002DF3D09B680022F4
:10AAF00039462046A847EDE70748CEE7032DA9D100
:10AB0000E36A9B889BB2002B86D1A36A80E700BFD3
:10AB1000097000F0087000F0027000F0836A9888F5
:10AB2000C0B270472DE9F341984600230546806A7C
:10AB30000E4684881746A4B2CDE900333CB169467D
:10AB4000FFF740FD01A90446E868FFF799F800996E
:10AB500071B16CB94868019BC01A3860C8F8003000
:10AB60000B6833602846FFF73BFF02B0BDE8F08179
:10AB70000021C8F8001039603160F3E7C36A988893
:10AB8000C0B270472DE9F341984600230546C06ADC
:10AB90000E4684881746A4B2CDE900333CB169461D
:10ABA000FFF710FD01A90446A868FFF769F80099AE
:10ABB00071B16CB94868019BC01A3860C8F80030A0
:10ABC0000B6833602846FFF70BFF02B0BDE8F08149
:10ABD0000021C8F8001039603160F3E7007E70474B
:10ABE0002DE9F04104460E469046FFF7B7FC0746B4
:10ABF000002832D1152001F0ADF90546E26A9388AC
:10AC00009BB213B194F8323053B394F8363063BB2F
:10AC100023689D6915F0020539D0012384F834308A
:10AC200094F83630002B49D1B0444645206840D1D5
:10AC300083699A06FCD585B994F83630002B4FD13C
:10AC400042F21C62102123795B0103F1804303F57A
:10AC500070339950082223685A613846BDE8F08164
:10AC6000002DCCD0FFF72EF8C8E7022B1FD12068AB
:10AC7000056C15F00205D0D1036CD9074CBF052136
:10AC8000062101F001FB02221C4B1A60C5E70422D9
:10AC90005A619A699007FCD541F21C621021237910
:10ACA0005B0103F1804303F570339950B5E700254C
:10ACB000B3E716F8011B01F001FFB6E7022BCCD178
:10ACC000B0444645206806D142F22003026C33EAC4
:10ACD0000202FBD1AFE716F8011B01F0F7FAF0E72B
:10ACE000022BBAD12068036CDB074CBF092129462F
:10ACF00001F0CAFA0222024B1A60AEE7C0D4034048
:10AD0000C0E4034010B5044680B190F832302BB94E
:10AD1000FFF712FD10B9A068FEF72AFF002094F893
:10AD200032300133DBB284F8323010BD0048FCE72A
:10AD3000027000F010B50446A0B190F832309BB11B
:10AD400090F83230012B05D1FFF7F6FC10B9A0685E
:10AD5000FEF72EFF002094F83230013BDBB284F87E
:10AD6000323010BD0148FCE70148FAE7027000F0FC
:10AD7000057000F037B590F835500446022D1ED10D
:10AD8000012190F82220457E837F01FA02F23020D3
:10AD9000154925B900FB031342F2100105E0012D0E
:10ADA00007D100FB031341F210015A50002003B0F9
:10ADB00030BD247E00FB0313002CF4D1ECE7012D01
:10ADC000F4D1037E73B911238DF80730FFF79AFF92
:10ADD0002A460DF107012046FFF702FF2046FFF744
:10ADE000A9FFE3E71323EFE700C0034090F83530F5
:10ADF000032B05D00229417618BF0176FFF7BABFB1
:10AE000000487047057000F010B50446002835D0A2
:10AE10000321FFF7F1FD00212046FFF7E7FF0021A6
:10AE20002046FFF76BFD94F836300BBB0A222368EF
:10AE30005A610021A08C00F015FC94F83530032BEA
:10AE400004D0002194F82100FEF79AFFA068FEF7D5
:10AE5000FFFDE068FEF7FCFDFEF7DAFD0020A36AC7
:10AE6000188058809880E36A18805880988010BDB8
:10AE7000022BDED1206801F0D7F9DAE70048F6E7C7
:10AE8000027000F0F0B587B004461646FFF766FB87
:10AE90000546F0B90493104BCDE901166A4601A9A5
:10AEA000A06A03960593FFF7EBFC054688B994F872
:10AEB000303073B92046FFF7C3FC00992046FFF7F6
:10AEC000C1FB94F83530032B03D025762046FFF7DD
:10AED00051FF284607B0F0BD017000F073B5906ACD
:10AEE00001A91446FFF76EFB354B98423BD094F80E
:10AEF0003600019B002839D12268916C11F4007151
:10AF000007D030499860196142F248034FF400714C
:10AF100009E0906CC50540D52B489960186142F254
:10AF200048034FF48071D15000F0EFFF01990646BD
:10AF3000CD6835B14A688B682046D31A0A6809691A
:10AF4000A84701A9A06AFFF757FBA06A8588ADB2A0
:10AF50003DB301A9FFF736FB01992046FFF772FBCD
:10AF6000304600F0D8FF012002B070BD022814D195
:10AF70002268516C11F4007106D012491961002148
:10AF8000996042F24403C1E7506CC00505D50E48F4
:10AF90009960186142F24403C3E700221A619A6083
:10AFA000C2E7012320462376FFF7E4FE94F835300C
:10AFB00084F83050032BD3D02046FFF725FCCFE791
:10AFC0000B7000F00D7000F00C7000F02DE9F043F4
:10AFD000044689B0744F01AE0D460FCF0FC697E8F7
:10AFE000070086E80700002C00F0DB8025B96F4ED3
:10AFF000304609B0BDE8F0833C220021204626F00F
:10B00000FDFE2046FFF7BCFA06460028F0D12B7D56
:10B0100084F835302B6884F8360023602A7B22714F
:10B02000634A934240F0A0802823A384614B2361AC
:10B030004FF4802300266361D5E90723A2621680BE
:10B040005680968084F83060E3621E805E809E8029
:10B050006B6884F831600393EB8984F83360ADF852
:10B0600014302B8A0121ADF81230AB7C3A208DF8D8
:10B070001030EB7C504F8DF8163005238DF81130D1
:10B0800000F0F0FA0121A08C00F0ECFA01A9286888
:10B090008DF8046001F090FC14222B7B2E7A07EBD4
:10B0A0004313C3F81C26A87A697A46EA0042C3F81B
:10B0B0003426EA7A41EA024CC3F82CC6E07784F8D9
:10B0C00020206B7DE67621776377AB7D012184F8C4
:10B0D0002130EB7D2046A3772B7E84F82230FFF7CA
:10B0E0000DFC0646002883D100F00FFF95F8149060
:10B0F0008046B9F1030F42D141F21C6202212B7B41
:10B10000042007EB4317B95041F25C0229685B0148
:10B110008850297EEA7D03F1804342EA014241F2F0
:10B12000286103F570335A50A97D6A7D42EA0142D5
:10B1300041F224615A504FF0FF3242F2480328682E
:10B14000C2502B7D032B0CBF0521042101F0F6FB1F
:10B150004FF440622B6820465A61FFF73FFB0646DA
:10B16000404600F0D8FE43E7144A93427FF43FAFD5
:10B170002923A384124B23614FF4A0235AE7B9F18A
:10B18000020FD8D194F821000E49FEF7F9FDFEF721
:10B19000E9FDA676267684F819902046FFF7EAFDA9
:10B1A000C9E7094E24E700BF684C0300037000F0B4
:10B1B00000C005400200040000C00340000006403B
:10B1C0000200050061A70000027000F090F8352031
:10B1D00010B5012A034610D102290ED0827E8A4280
:10B1E00001D1002010BD997611B9FFF7A3FDF8E752
:10B1F0000129F6D1FFF786FDF3E70148F2E700BF2A
:10B20000057000F0F0B587B004461646FFF7A6F9C2
:10B21000054600BB0493114BCDE901166A4601A90E
:10B22000E06A03960593FFF72BFB054698B994F85F
:10B23000313083B900F069FEE36A06469B889BB211
:10B2400033B100992046FFF723FA012384F8343004
:10B25000304600F060FE284607B0F0BD017000F0F7
:10B2600070B5012488B00E22002104A826F0C6FD86
:10B270000D22002168468DF8104026F0BFFD022304
:10B280002146264C24208DF8063000F0EBF96A4662
:10B290000021204601F0D8FA236B4FF6FF73204EB1
:10B2A000E36100233546ADF8123004A9204601F0D1
:10B2B0007EFA4FF4806000F01FFABDF812300133BF
:10B2C000B0FBF3F09BB2B3F5806F3060ADF8123095
:10B2D00002D2144B9842E8D8002000F00DFA12492F
:10B2E000124CB1FBF0F128680025E1FB0045104A43
:10B2F00000232046294626F0A5FB0E4B074A18607E
:10B3000000200D4B1870936923F010039361802285
:10B310000A4BC3F880211A6008B070BD0080044059
:10B320005C24002080841E0000B0710B20A1070067
:10B3300040420F00602400206424002000E100E06F
:10B34000F7B500251D4B1E4C19681E4AE0FB014550
:10B3500000232046294626F075FB4FF6E8540025C9
:10B360004FF6E75E4FF0FF37DFF860C0164E8D42B4
:10B3700008BF844211D380B260B1144A516A89B2C5
:10B38000536A9BB2ADF80630BDF806305B1A9BB22B
:10B390009842F5D8002003B0F0BDDCF8242092B22A
:10B3A000DCF824309BB2ADF80430BDF804309B1AB1
:10B3B0009BB27345F4D980197941D8E75C24002009
:10B3C00020A1070040420F001802FFFF0080044048
:10B3D000054B5A69D20606D542F214021021995043
:10B3E0000122024B1A707047008004406424002040
:10B3F000054A1368DB06FCD44FF04023D3F88400E1
:10B40000C0F38110704700BF8440004038B5104B36
:10B410000546D3F820310C4603F00303022B0BD072
:10B42000032B0DD0012B0FD101F002FC052305B138
:10B43000286004B1237038BD01F0E4FB0323F6E774
:10B4400001F0FEFB0223F2E700231846EFE700BFFE
:10B450000080004073B50D4600210E4B0191D3F8DA
:10B460008041064604F00304012C08D0022C0BD0C6
:10B470000EB1019B336005B1297002B070BD01A807
:10B48000FFF7C4FF0D21F3E701F0DAFB214601903D
:10B49000EEE700BF0080004038B5174B0546D3F8F3
:10B4A00024310C4603F00703013B052B20D8DFE8CD
:10B4B00003F0030F171B0B1301F0BAFB052305B1B3
:10B4C000286004B1237038BD01F0B2FB0623F6E713
:10B4D00001F098FB0323F2E701F094FB0423EEE76D
:10B4E00001F0AEFB0223EAE701F0A8FB0723E6E741
:10B4F00000231846E3E700BF0080004038B5104B3A
:10B500000546D3F840310C4603F00303022B0BD061
:10B51000032B0DD0012B0FD101F096FB092305B1B0
:10B52000286004B1237038BD01F094FB0823F6E7CE
:10B5300001F08DFB0A23F2E700231846EFE700BF76
:10B540000080004038B5134B0546D3F800320C4656
:10B5500003F00703013B032B18D8DFE803F0020ACE
:10B560000E1201F071FB092305B1286004B12370AC
:10B5700038BD01F06FFB0823F6E701F068FB0A23F2
:10B58000F2E701F029FB0C23800AEDE700231846BF
:10B59000EAE700BF0080004038B5104B0546D3F8FD
:10B5A00040320C4603F00303022B0BD0032B0DD0CB
:10B5B000012B0FD101F048FB092305B1286004B12C
:10B5C000237038BD01F046FB0823F6E701F03FFB8E
:10B5D0000A23F2E700231846EFE700BF008000408F
:10B5E00038B5104B0546D3F860310C4603F0030321
:10B5F000022B0BD0032B0DD0012B0FD101F024FB1C
:10B60000092305B1286004B1237038BD01F022FB85
:10B610000823F6E701F01BFB0A23F2E70023184694
:10B62000EFE700BF008000400D4B10B4D3F820328C
:10B630000A4603F00303012B0AD0022B0CD008B1F9
:10B64000002303600AB1002313705DF8044B7047B8
:10B650005DF8044BFFF7DABE5DF8044BFFF74EBF11
:10B6600000800040430910B507D0012B0FD00A4CD1
:10B670000A4A022B14BF2346134600F01F0041B1B3
:10B6800003F58053012202FA00F0186010BD044B4C
:10B69000F3E703F50053F5E760820040688000405F
:10B6A00064800040B0F5007F18D005D880B1B0F5B7
:10B6B000C07F0DD000200FE0B0F5207F14D0B0F592
:10B6C000607FF7D10B4BD3F88000C0F3011003E08B
:10B6D000084B186FC0F3033001307047054BD3F8A7
:10B6E0009000C0F30460F7E7024B186FC0F38020AE
:10B6F000F2E700BF00800040002313B53E28044657
:10B70000019300F0B18042D82B2828D01FD82328DD
:10B7100013D00CD8202849D004D8002846D001984E
:10B7200002B010BD212808D022283FD0F7E72928F1
:10B7300000F290802828C0F0838001F04DFA024684
:10B740004FF42070FFF7AEFFB2FBF0F071E031284C
:10B7500010D82F28F1D22D2800F0818056D901F081
:10B760003BFA02464FF42070FFF79CFFB2FBF0F06B
:10B7700040085EE03C2855D83A28DED2382864D00C
:10B780003928CCD1002101A8FFF786FEC7E7B0F524
:10B79000007F50D01BD8522852D00AD84D2805D04F
:10B7A00002D83F28C9D0BAE74F28B8D301F014FA1D
:10B7B0003FE080283BD004D8A0F16004012CF5D9EB
:10B7C000ADE7B0F5807F21D0B0F5C07FADE7B0F533
:10B7D000A06F3AD010D8B0F5607F2CD006D8B0F565
:10B7E000207FAAD0B0F5407FB9D098E7B0F5806F40
:10B7F00026D0B0F5906FC4E7B0F5D06F2FD00AD83F
:10B80000B0F5B06F26D0B0F5C06F88D1002101A887
:10B81000FFF774FE83E7B0F5E06F25D0B0F5F06F69
:10B820007FF47DAF002101A8FFF7DAFE77E701F092
:10B83000B9F9019073E701F0B5F90246204681E7B6
:10B84000002101A8FFF7E2FD69E7002101A8FFF749
:10B85000EBFE64E7002101A8FFF7FCFD5FE7002194
:10B8600001A8FFF76FFE5AE7002101A8FFF794FE39
:10B8700055E7000008B58020FFF73EFF044B9842D3
:10B880009FBF42F270034FF48031024AD15008BD8D
:10B89000005A62020080004038B5054641F2680354
:10B8A0004FF400300D4AD0500020FFF7FBFE41F668
:10B8B00071320B4B6843DC690A4DDA639A68A8421F
:10B8C00004F4803422F4401203D9012918BF42F451
:10B8D00080129A600CB10022DA6338BD008000400B
:10B8E00000000340005A620208B501F087F9BDE884
:10B8F00008400021FFF7D0BF002307B5B0F5807FD7
:10B900008DF8073011D030D82D2800F0828012D861
:10B910002A2841D007D82438032831D99DF80700B8
:10B9200003B05DF804FB2C28F8D10DF107010020CD
:10B93000FFF7E4FDF2E73D285FD007D83828EDD1C6
:10B940000DF107010020FFF76FFEE7E73E2833D037
:10B950008028E3D1374B1B6F03F00703013B032B18
:10B96000DCD8DFE803F048444262B0F5C06FDCD0B9
:10B9700018D8B0F5906F46D008D8B0F5806FCDD10B
:10B980000DF107010020FFF741FDC7E7B0F5A06FFB
:10B99000D6D0B0F5B06FC1D10DF107010020FFF78F
:10B9A00059FDBBE7B0F5F06F27D00BD8B0F5D06FDD
:10B9B0002FD0B0F5E06FB1D10DF107010020FFF7F6
:10B9C000EBFDABE7B0F5006F1DD0B0F5086FA5D16A
:10B9D000184BD3F8003103F00303022B1FD0032BC5
:10B9E00021D0012B23D101F00DF9032300E0052321
:10B9F0008DF8073092E70223FAE70DF107010020E6
:10BA0000FFF7EEFD8AE70DF107010020FFF744FD87
:10BA100084E70DF107010020FFF794FD7EE701F0B8
:10BA200019F90823E4E701F009F90723E0E7012306
:10BA3000DEE700BF00800040F8B504468020FFF735
:10BA40005BFF032800F0858041F264034FF400217E
:10BA5000464AD15045F60E0302F58042C2F88030C6
:10BA6000022141F22803D15042F228030121D15092
:10BA7000916D11F48031FBD1637820781B0543EA86
:10BA80000063A0793A4E0343E078657C43EA0043C3
:10BA9000207943EA0033607943EA80131361237A03
:10BAA000E0791B0643EA8063E07A0343607A43EA65
:10BAB0000043A07A43EA00239361637B126A002B60
:10BAC00018BF0821207B22F00D0243EA020343EA5B
:10BAD000800341EA0301A37B31624FEA431CE37B0D
:10BAE000207C4FEA0317314634D1B26A214B22F051
:10BAF000330242F0010242EA0C023A43B2628A6D1A
:10BB000033EA0202FBD1022341F228028B50184A89
:10BB10000B65936D5B00FCD41169A37821F470016F
:10BB200041EA0351116141F218034FF00041D15035
:10BB300018B942F228030221D15025B942F2280354
:10BB400001210B4AD150A37C1BB1094B0A4AC3F80F
:10BB50008020F8BDB36A23F033032B4343EA0C0380
:10BB60003B4343EA4003B362EDE700BF008000407F
:10BB700000C0004003000140F1A7FFFF0029CCBF37
:10BB800001210021FFF788BE10B50446FFF7ACFE87
:10BB900000F054F841F270034FF480310C4A013C3C
:10BBA000D150106F20F4704040EA0430106701F06B
:10BBB00013F80446FFF71CFCC0F102012046FFF712
:10BBC000DDFF00F041F8BDE81040FFF753BE00BFB5
:10BBD00000800040B0F5007F1AD004D850B1B0F515
:10BBE000C07F07D07047B0F5207F1CD0B0F5607FD4
:10BBF00003D070470846FFF7C7BF0F4A0139D2F894
:10BC0000803023F0300343EA0111C2F880107047FE
:10BC1000094A0139D2F8903023F0F85343EA016120
:10BC2000C2F890107047044A0139136F23F48063FF
